{"abi":[{"type":"constructor","inputs":[{"name":"_initialOwner","type":"address","internalType":"address"},{"name":"_name","type":"string","internalType":"string"},{"name":"_symbol","type":"string","internalType":"string"},{"name":"_handler","type":"address","internalType":"address"}],"stateMutability":"nonpayable"},{"type":"function","name":"PRECISION","inputs":[],"outputs":[{"name":"","type":"uint256","internalType":"uint256"}],"stateMutability":"view"},{"type":"function","name":"allowance","inputs":[{"name":"_owner","type":"address","internalType":"address"},{"name":"_spender","type":"address","internalType":"address"}],"outputs":[{"name":"","type":"uint256","internalType":"uint256"}],"stateMutability":"view"},{"type":"function","name":"allowances","inputs":[{"name":"","type":"address","internalType":"address"},{"name":"","type":"address","internalType":"address"}],"outputs":[{"name":"","type":"uint256","internalType":"uint256"}],"stateMutability":"view"},{"type":"function","name":"approve","inputs":[{"name":"_spender","type":"address","internalType":"address"},{"name":"_amount","type":"uint256","internalType":"uint256"}],"outputs":[{"name":"","type":"bool","internalType":"bool"}],"stateMutability":"nonpayable"},{"type":"function","name":"balanceOf","inputs":[{"name":"_account","type":"address","internalType":"address"}],"outputs":[{"name":"","type":"uint256","internalType":"uint256"}],"stateMutability":"view"},{"type":"function","name":"balances","inputs":[{"name":"","type":"address","internalType":"address"}],"outputs":[{"name":"","type":"uint256","internalType":"uint256"}],"stateMutability":"view"},{"type":"function","name":"claimForAccount","inputs":[{"name":"_account","type":"address","internalType":"address"},{"name":"_receiver","type":"address","internalType":"address"}],"outputs":[{"name":"","type":"uint256","internalType":"uint256"}],"stateMutability":"nonpayable"},{"type":"function","name":"claimable","inputs":[{"name":"_account","type":"address","internalType":"address"}],"outputs":[{"name":"","type":"uint256","internalType":"uint256"}],"stateMutability":"view"},{"type":"function","name":"claimableReward","inputs":[{"name":"","type":"address","internalType":"address"}],"outputs":[{"name":"","type":"uint256","internalType":"uint256"}],"stateMutability":"view"},{"type":"function","name":"cumulativeRewardPerToken","inputs":[],"outputs":[{"name":"","type":"uint256","internalType":"uint256"}],"stateMutability":"view"},{"type":"function","name":"cumulativeRewards","inputs":[{"name":"","type":"address","internalType":"address"}],"outputs":[{"name":"","type":"uint256","internalType":"uint256"}],"stateMutability":"view"},{"type":"function","name":"depositToken","inputs":[],"outputs":[{"name":"","type":"address","internalType":"address"}],"stateMutability":"view"},{"type":"function","name":"inPrivateStakingMode","inputs":[],"outputs":[{"name":"","type":"bool","internalType":"bool"}],"stateMutability":"view"},{"type":"function","name":"inPrivateTransferMode","inputs":[],"outputs":[{"name":"","type":"bool","internalType":"bool"}],"stateMutability":"view"},{"type":"function","name":"initialize","inputs":[{"name":"_depositToken","type":"address","internalType":"address"},{"name":"_rewardToken","type":"address","internalType":"address"}],"outputs":[],"stateMutability":"nonpayable"},{"type":"function","name":"isHandler","inputs":[{"name":"","type":"address","internalType":"address"}],"outputs":[{"name":"","type":"bool","internalType":"bool"}],"stateMutability":"view"},{"type":"function","name":"isInitialized","inputs":[],"outputs":[{"name":"","type":"bool","internalType":"bool"}],"stateMutability":"view"},{"type":"function","name":"lastDistributionTime","inputs":[],"outputs":[{"name":"","type":"uint256","internalType":"uint256"}],"stateMutability":"view"},{"type":"function","name":"name","inputs":[],"outputs":[{"name":"","type":"string","internalType":"string"}],"stateMutability":"view"},{"type":"function","name":"owner","inputs":[],"outputs":[{"name":"","type":"address","internalType":"address"}],"stateMutability":"view"},{"type":"function","name":"pendingRewards","inputs":[],"outputs":[{"name":"","type":"uint256","internalType":"uint256"}],"stateMutability":"view"},{"type":"function","name":"previousCumulatedRewardPerToken","inputs":[{"name":"","type":"address","internalType":"address"}],"outputs":[{"name":"","type":"uint256","internalType":"uint256"}],"stateMutability":"view"},{"type":"function","name":"renounceOwnership","inputs":[],"outputs":[],"stateMutability":"nonpayable"},{"type":"function","name":"rewardToken","inputs":[],"outputs":[{"name":"","type":"address","internalType":"address"}],"stateMutability":"view"},{"type":"function","name":"setHandler","inputs":[{"name":"_handler","type":"address","internalType":"address"},{"name":"_isActive","type":"bool","internalType":"bool"}],"outputs":[],"stateMutability":"nonpayable"},{"type":"function","name":"setInPrivateModes","inputs":[{"name":"_inPrivateTransferMode","type":"bool","internalType":"bool"}],"outputs":[],"stateMutability":"nonpayable"},{"type":"function","name":"setTokensPerInterval","inputs":[{"name":"_amount","type":"uint256","internalType":"uint256"}],"outputs":[],"stateMutability":"nonpayable"},{"type":"function","name":"stableRewardSystem","inputs":[],"outputs":[{"name":"","type":"bool","internalType":"bool"}],"stateMutability":"view"},{"type":"function","name":"stakeForAccount","inputs":[{"name":"_fundingAccount","type":"address","internalType":"address"},{"name":"_account","type":"address","internalType":"address"},{"name":"_depositToken","type":"address","internalType":"address"},{"name":"_amount","type":"uint256","internalType":"uint256"}],"outputs":[],"stateMutability":"nonpayable"},{"type":"function","name":"stakeWithPermit","inputs":[{"name":"_depositToken","type":"address","internalType":"address"},{"name":"_amount","type":"uint256","internalType":"uint256"},{"name":"deadline","type":"uint256","internalType":"uint256"},{"name":"v","type":"uint8","internalType":"uint8"},{"name":"r","type":"bytes32","internalType":"bytes32"},{"name":"s","type":"bytes32","internalType":"bytes32"}],"outputs":[],"stateMutability":"nonpayable"},{"type":"function","name":"stakedAmounts","inputs":[{"name":"","type":"address","internalType":"address"}],"outputs":[{"name":"","type":"uint256","internalType":"uint256"}],"stateMutability":"view"},{"type":"function","name":"symbol","inputs":[],"outputs":[{"name":"","type":"string","internalType":"string"}],"stateMutability":"view"},{"type":"function","name":"tokensPerInterval","inputs":[],"outputs":[{"name":"","type":"uint256","internalType":"uint256"}],"stateMutability":"view"},{"type":"function","name":"totalDepositSupply","inputs":[{"name":"","type":"address","internalType":"address"}],"outputs":[{"name":"","type":"uint256","internalType":"uint256"}],"stateMutability":"view"},{"type":"function","name":"totalSupply","inputs":[],"outputs":[{"name":"","type":"uint256","internalType":"uint256"}],"stateMutability":"view"},{"type":"function","name":"transfer","inputs":[{"name":"_recipient","type":"address","internalType":"address"},{"name":"_amount","type":"uint256","internalType":"uint256"}],"outputs":[{"name":"","type":"bool","internalType":"bool"}],"stateMutability":"nonpayable"},{"type":"function","name":"transferFrom","inputs":[{"name":"_sender","type":"address","internalType":"address"},{"name":"_recipient","type":"address","internalType":"address"},{"name":"_amount","type":"uint256","internalType":"uint256"}],"outputs":[{"name":"","type":"bool","internalType":"bool"}],"stateMutability":"nonpayable"},{"type":"function","name":"transferOwnership","inputs":[{"name":"newOwner","type":"address","internalType":"address"}],"outputs":[],"stateMutability":"nonpayable"},{"type":"function","name":"unstakeForAccount","inputs":[{"name":"_account","type":"address","internalType":"address"},{"name":"_depositToken","type":"address","internalType":"address"},{"name":"_amount","type":"uint256","internalType":"uint256"},{"name":"_receiver","type":"address","internalType":"address"}],"outputs":[],"stateMutability":"nonpayable"},{"type":"function","name":"updateLastDistributionTime","inputs":[],"outputs":[],"stateMutability":"nonpayable"},{"type":"function","name":"updateRewards","inputs":[],"outputs":[],"stateMutability":"nonpayable"},{"type":"event","name":"Approval","inputs":[{"name":"owner","type":"address","indexed":true,"internalType":"address"},{"name":"spender","type":"address","indexed":true,"internalType":"address"},{"name":"value","type":"uint256","indexed":false,"internalType":"uint256"}],"anonymous":false},{"type":"event","name":"Claim","inputs":[{"name":"receiver","type":"address","indexed":false,"internalType":"address"},{"name":"amount","type":"uint256","indexed":false,"internalType":"uint256"}],"anonymous":false},{"type":"event","name":"OwnershipTransferred","inputs":[{"name":"previousOwner","type":"address","indexed":true,"internalType":"address"},{"name":"newOwner","type":"address","indexed":true,"internalType":"address"}],"anonymous":false},{"type":"event","name":"TokensPerIntervalChange","inputs":[{"name":"amount","type":"uint256","indexed":false,"internalType":"uint256"}],"anonymous":false},{"type":"event","name":"Transfer","inputs":[{"name":"from","type":"address","indexed":true,"internalType":"address"},{"name":"to","type":"address","indexed":true,"internalType":"address"},{"name":"value","type":"uint256","indexed":false,"internalType":"uint256"}],"anonymous":false},{"type":"error","name":"OwnableInvalidOwner","inputs":[{"name":"owner","type":"address","internalType":"address"}]},{"type":"error","name":"OwnableUnauthorizedAccount","inputs":[{"name":"account","type":"address","internalType":"address"}]},{"type":"error","name":"ReentrancyGuardReentrantCall","inputs":[]}],"bytecode":{"object":"0x60806040523480156200001157600080fd5b5060405162002153380380620021538339810160408190526200003491620001f3565b6001600055836001600160a01b0381166200006957604051631e4fbdf760e01b81526000600482015260240160405180910390fd5b6200007481620000bf565b50600c62000083848262000312565b50600d62000092838262000312565b506001600160a01b03166000908152600b60205260409020805460ff1916600117905550620003de915050565b600180546001600160a01b038381166001600160a01b0319831681179093556040519116919082907f8be0079c531659141344cd1fd0a4f28419497f9722a3daafe3b4186f6b6457e090600090a35050565b80516001600160a01b03811681146200012957600080fd5b919050565b634e487b7160e01b600052604160045260246000fd5b600082601f8301126200015657600080fd5b81516001600160401b03808211156200017357620001736200012e565b604051601f8301601f19908116603f011681019082821181831017156200019e576200019e6200012e565b81604052838152602092508683858801011115620001bb57600080fd5b600091505b83821015620001df5785820183015181830184015290820190620001c0565b600093810190920192909252949350505050565b600080600080608085870312156200020a57600080fd5b620002158562000111565b60208601519094506001600160401b03808211156200023357600080fd5b620002418883890162000144565b945060408701519150808211156200025857600080fd5b50620002678782880162000144565b925050620002786060860162000111565b905092959194509250565b600181811c908216806200029857607f821691505b602082108103620002b957634e487b7160e01b600052602260045260246000fd5b50919050565b601f8211156200030d57600081815260208120601f850160051c81016020861015620002e85750805b601f850160051c820191505b818110156200030957828155600101620002f4565b5050505b505050565b81516001600160401b038111156200032e576200032e6200012e565b62000346816200033f845462000283565b84620002bf565b602080601f8311600181146200037e5760008415620003655750858301515b600019600386901b1c1916600185901b17855562000309565b600085815260208120601f198616915b82811015620003af578886015182559484019460019091019084016200038e565b5085821015620003ce5787850151600019600388901b60f8161c191681555b5050505050600190811b01905550565b611d6580620003ee6000396000f3fe608060405234801561001057600080fd5b50600436106102535760003560e01c8063715018a611610146578063c5fa2730116100c3578063eded3fda11610087578063eded3fda1461059a578063ef953750146105a2578063f2fde38b146105b6578063f5fc5076146105c9578063f7c618c1146105d2578063f831e49e146105e557600080fd5b8063c5fa273014610506578063c89039c51461051a578063dd62ed3e1461052d578063dfbaefb114610566578063e95034251461057a57600080fd5b806395d89b411161010a57806395d89b41146104bb5780639cb7de4b146104c3578063a8d93627146104d6578063a9059cbb146104df578063aaf5eb68146104f257600080fd5b8063715018a61461045f57806373d6a8891461046757806375b173501461047a578063790b5a6c146104835780638da5cb5b1461049657600080fd5b8063392e53cd116101d457806346ea87af1161019857806346ea87af146103b5578063485cc955146103d8578063552ce1dc146103eb57806355b6ed5c1461040b57806370a082311461043657600080fd5b8063392e53cd1461035e5780633ae6d6eb146103725780633e158b0c1461037a578063402914f51461038257806344a084111461039557600080fd5b806318160ddd1161021b57806318160ddd146102ef57806318e20a03146102f857806323b872dd1461030b57806327e235e31461031e5780633792def31461033e57600080fd5b806306fdde0314610258578063095ea7b314610276578063098bf59d1461029957806310c1c103146102ae57806313e82e7a146102dc575b600080fd5b6102606105f8565b60405161026d919061194a565b60405180910390f35b6102896102843660046119b4565b610686565b604051901515815260200161026d565b6102ac6102a73660046119de565b61069d565b005b6102ce6102bc366004611a2b565b60076020526000908152604090205481565b60405190815260200161026d565b6102ce6102ea366004611a46565b6106c9565b6102ce60105481565b6102ac610306366004611a79565b6106f1565b610289610319366004611a92565b6107a9565b6102ce61032c366004611a2b565b60056020526000908152604090205481565b6102ce61034c366004611a2b565b600a6020526000908152604090205481565b60035461028990600160a01b900460ff1681565b6102ac610843565b6102ac610851565b6102ce610390366004611a2b565b61086f565b6102ce6103a3366004611a2b565b60096020526000908152604090205481565b6102896103c3366004611a2b565b600b6020526000908152604090205460ff1681565b6102ac6103e6366004611a46565b610962565b6102ce6103f9366004611a2b565b60046020526000908152604090205481565b6102ce610419366004611a46565b600660209081526000928352604080842090915290825290205481565b6102ce610444366004611a2b565b6001600160a01b031660009081526005602052604090205490565b6102ac610a1c565b6102ac610475366004611ace565b610a2e565b6102ce600f5481565b6102ac610491366004611b2e565b610adc565b6001546001600160a01b03165b6040516001600160a01b03909116815260200161026d565b610260610af8565b6102ac6104d1366004611b87565b610b05565b6102ce600e5481565b6102896104ed3660046119b4565b610b38565b6102ce6c0c9f2c9cd04674edea4000000081565b60035461028990600160b01b900460ff1681565b6002546104a3906001600160a01b031681565b6102ce61053b366004611a46565b6001600160a01b03918216600090815260066020908152604080832093909416825291909152205490565b60035461028990600160a81b900460ff1681565b6102ce610588366004611a2b565b60086020526000908152604090205481565b6102ce610b45565b60035461028990600160b81b900460ff1681565b6102ac6105c4366004611a2b565b610b83565b6102ce60115481565b6003546104a3906001600160a01b031681565b6102ac6105f3366004611bbe565b610bc1565b600c805461060590611bdb565b80601f016020809104026020016040519081016040528092919081815260200182805461063190611bdb565b801561067e5780601f106106535761010080835404028352916020019161067e565b820191906000526020600020905b81548152906001019060200180831161066157829003601f168201915b505050505081565b6000610693338484610be7565b5060015b92915050565b6106a5610d1d565b6106ad610d47565b6106b984848484610da6565b6106c36001600055565b50505050565b60006106d3610d1d565b6106db610d47565b6106e58383610f64565b90506106976001600055565b6106f9611066565b600f546000036107645760405162461bcd60e51b815260206004820152602b60248201527f526577617264547261636b65723a20696e76616c6964206c617374446973747260448201526a69627574696f6e54696d6560a81b60648201526084015b60405180910390fd5b61076e6000611093565b600e8190556040518181527f98dc76c39aa5a5dcb749f8750a65db3dfa1e14bcc1591a9c16a7420e5da748f89060200160405180910390a150565b336000908152600b602052604081205460ff16156107d4576107cc84848461121c565b50600161083c565b600061081e83604051806060016040528060308152602001611cd2603091396001600160a01b038816600090815260066020908152604080832033845290915290205491906113cc565b905061082b853383610be7565b61083685858561121c565b60019150505b9392505050565b61084b611066565b42600f55565b610859610d1d565b6108636000611093565b61086d6001600055565b565b6001600160a01b0381166000908152600760205260408120548082036108ac5750506001600160a01b031660009081526008602052604090205490565b60105460006108d06c0c9f2c9cd04674edea400000006108ca610b45565b90611406565b905060006108ea6108e18385611488565b601154906114ca565b6001600160a01b03871660009081526009602052604090205490915061095890610939906c0c9f2c9cd04674edea40000000906109339061092c908690611529565b8890611406565b90611488565b6001600160a01b038816600090815260086020526040902054906114ca565b9695505050505050565b61096a611066565b600354600160a01b900460ff16156109cf5760405162461bcd60e51b815260206004820152602260248201527f526577617264547261636b65723a20616c726561647920696e697469616c697a604482015261195960f21b606482015260840161075b565b60038054600280546001600160a01b039586166001600160a01b031990911617905560ff60a81b19929093166001600160a81b031990931692909217600160a01b1716600160a81b179055565b610a24611066565b61086d600061156b565b610a36610d1d565b60025460405163d505accf60e01b8152336004820152306024820152604481018790526064810186905260ff8516608482015260a4810184905260c481018390526001600160a01b039091169063d505accf9060e401600060405180830381600087803b158015610aa657600080fd5b505af1158015610aba573d6000803e3d6000fd5b50505050610aca333388886115bd565b610ad46001600055565b505050505050565b610ae4610d1d565b610aec610d47565b6106b9848484846115bd565b600d805461060590611bdb565b610b0d611066565b6001600160a01b03919091166000908152600b60205260409020805460ff1916911515919091179055565b600061069333848461121c565b6000600f544203610b565750600090565b6000610b6d600f544261152990919063ffffffff16565b600e54909150610b7d9082611406565b91505090565b610b8b611066565b6001600160a01b038116610bb557604051631e4fbdf760e01b81526000600482015260240161075b565b610bbe8161156b565b50565b610bc9611066565b60038054911515600160a81b0260ff60a81b19909216919091179055565b6001600160a01b038316610c525760405162461bcd60e51b815260206004820152602c60248201527f526577617264547261636b65723a20617070726f76652066726f6d207468652060448201526b7a65726f206164647265737360a01b606482015260840161075b565b6001600160a01b038216610cbb5760405162461bcd60e51b815260206004820152602a60248201527f526577617264547261636b65723a20617070726f766520746f20746865207a65604482015269726f206164647265737360b01b606482015260840161075b565b6001600160a01b0383811660008181526006602090815260408083209487168084529482529182902085905590518481527f8c5be1e5ebec7d5bd14f71427d1e84f3dd0314c0f7b2291e5b200ac8c7c3b92591015b60405180910390a3505050565b600260005403610d4057604051633ee5aeb560e01b815260040160405180910390fd5b6002600055565b336000908152600b602052604090205460ff1661086d5760405162461bcd60e51b815260206004820152601860248201527f526577617264547261636b65723a20666f7262696464656e0000000000000000604482015260640161075b565b60008211610df65760405162461bcd60e51b815260206004820152601e60248201527f526577617264547261636b65723a20696e76616c6964205f616d6f756e740000604482015260640161075b565b600354600160b81b900460ff1615610e1157610e1184611093565b6001600160a01b03841660009081526007602052604090205482811015610e8e5760405162461bcd60e51b815260206004820152602b60248201527f526577617264547261636b65723a205f616d6f756e742065786365656473207360448201526a1d185ad959105b5bdd5b9d60aa1b606482015260840161075b565b610e988184611529565b6001600160a01b03808716600090815260076020908152604080832094909455918716815260049091522054610ece9084611529565b6001600160a01b038516600090815260046020526040902055610ef1858461171e565b60405163a9059cbb60e01b81526001600160a01b0383811660048301526024820185905285169063a9059cbb906044016020604051808303816000875af1158015610f40573d6000803e3d6000fd5b505050506040513d601f19601f82011682018060405250810190610ad49190611c15565b600354600090600160b81b900460ff1615610f8257610f8283611093565b6001600160a01b03831660009081526008602052604081208054919055801561083c5760035460405163a9059cbb60e01b81526001600160a01b038581166004830152602482018490529091169063a9059cbb906044016020604051808303816000875af1158015610ff8573d6000803e3d6000fd5b505050506040513d601f19601f8201168201806040525081019061101c9190611c15565b50604080516001600160a01b0386168152602081018390527f47cee97cb7acd717b3c0aa1435d004cd5b3c8c57d70dbceb4e4458bbd60e39d4910160405180910390a19392505050565b6001546001600160a01b0316331461086d5760405163118cdaa760e01b815233600482015260240161075b565b600061109d610b45565b42600f556010546011549192509081158015906110ba5750600083115b156110ec576110e46110dd83610933866c0c9f2c9cd04674edea40000000611406565b82906114ca565b601181905590505b806000036110fa5750505050565b6001600160a01b038416156106c3576001600160a01b0384166000908152600760209081526040808320546009909252822054909190611159906c0c9f2c9cd04674edea400000009061093390611152908790611529565b8590611406565b6001600160a01b0387166000908152600860205260408120549192509061118090836114ca565b6001600160a01b038816600090815260086020908152604080832084905560099091529020859055905080158015906111d057506001600160a01b03871660009081526007602052604090205415155b15611213576001600160a01b0387166000908152600a60205260408120546111f890846114ca565b6001600160a01b0389166000908152600a6020526040902055505b50505050505050565b6001600160a01b0383166112885760405162461bcd60e51b815260206004820152602d60248201527f526577617264547261636b65723a207472616e736665722066726f6d2074686560448201526c207a65726f206164647265737360981b606482015260840161075b565b6001600160a01b0382166112f25760405162461bcd60e51b815260206004820152602b60248201527f526577617264547261636b65723a207472616e7366657220746f20746865207a60448201526a65726f206164647265737360a81b606482015260840161075b565b600354600160a81b900460ff161561130c5761130c610d47565b611349816040518060600160405280602e8152602001611d02602e91396001600160a01b03861660009081526005602052604090205491906113cc565b6001600160a01b03808516600090815260056020526040808220939093559084168152205461137890826114ca565b6001600160a01b0380841660008181526005602052604090819020939093559151908516907fddf252ad1be2c89b69c2b068fc378daa952ba7f163c4a11628f55a4df523b3ef90610d109085815260200190565b600081848411156113f05760405162461bcd60e51b815260040161075b919061194a565b5060006113fd8486611c48565b95945050505050565b60008260000361141857506000610697565b60006114248385611c5b565b9050826114318583611c72565b1461083c5760405162461bcd60e51b815260206004820152602160248201527f536166654d6174683a206d756c7469706c69636174696f6e206f766572666c6f6044820152607760f81b606482015260840161075b565b600061083c83836040518060400160405280601a81526020017f536166654d6174683a206469766973696f6e206279207a65726f000000000000815250611832565b6000806114d78385611c94565b90508381101561083c5760405162461bcd60e51b815260206004820152601b60248201527f536166654d6174683a206164646974696f6e206f766572666c6f770000000000604482015260640161075b565b600061083c83836040518060400160405280601e81526020017f536166654d6174683a207375627472616374696f6e206f766572666c6f7700008152506113cc565b600180546001600160a01b038381166001600160a01b0319831681179093556040519116919082907f8be0079c531659141344cd1fd0a4f28419497f9722a3daafe3b4186f6b6457e090600090a35050565b6000811161160d5760405162461bcd60e51b815260206004820152601e60248201527f526577617264547261636b65723a20696e76616c6964205f616d6f756e740000604482015260640161075b565b6040516323b872dd60e01b81526001600160a01b038581166004830152306024830152604482018390528316906323b872dd906064016020604051808303816000875af1158015611662573d6000803e3d6000fd5b505050506040513d601f19601f820116820180604052508101906116869190611c15565b50600354600160b81b900460ff16156116a2576116a283611093565b6001600160a01b0383166000908152600760205260409020546116c590826114ca565b6001600160a01b038085166000908152600760209081526040808320949094559185168152600490915220546116fb90826114ca565b6001600160a01b0383166000908152600460205260409020556106c38382611860565b6001600160a01b0382166117865760405162461bcd60e51b815260206004820152602960248201527f526577617264547261636b65723a206275726e2066726f6d20746865207a65726044820152686f206164647265737360b81b606482015260840161075b565b6117c3816040518060600160405280602a8152602001611ca8602a91396001600160a01b03851660009081526005602052604090205491906113cc565b6001600160a01b0383166000908152600560205260409020556010546117e99082611529565b6010556040518181526000906001600160a01b038416907fddf252ad1be2c89b69c2b068fc378daa952ba7f163c4a11628f55a4df523b3ef906020015b60405180910390a35050565b600081836118535760405162461bcd60e51b815260040161075b919061194a565b5060006113fd8486611c72565b6001600160a01b0382166118c65760405162461bcd60e51b815260206004820152602760248201527f526577617264547261636b65723a206d696e7420746f20746865207a65726f206044820152666164647265737360c81b606482015260840161075b565b6010546118d390826114ca565b6010556001600160a01b0382166000908152600560205260409020546118f990826114ca565b6001600160a01b0383166000818152600560205260408082209390935591519091907fddf252ad1be2c89b69c2b068fc378daa952ba7f163c4a11628f55a4df523b3ef906118269085815260200190565b600060208083528351808285015260005b818110156119775785810183015185820160400152820161195b565b506000604082860101526040601f19601f8301168501019250505092915050565b80356001600160a01b03811681146119af57600080fd5b919050565b600080604083850312156119c757600080fd5b6119d083611998565b946020939093013593505050565b600080600080608085870312156119f457600080fd5b6119fd85611998565b9350611a0b60208601611998565b925060408501359150611a2060608601611998565b905092959194509250565b600060208284031215611a3d57600080fd5b61083c82611998565b60008060408385031215611a5957600080fd5b611a6283611998565b9150611a7060208401611998565b90509250929050565b600060208284031215611a8b57600080fd5b5035919050565b600080600060608486031215611aa757600080fd5b611ab084611998565b9250611abe60208501611998565b9150604084013590509250925092565b60008060008060008060c08789031215611ae757600080fd5b611af087611998565b95506020870135945060408701359350606087013560ff81168114611b1457600080fd5b9598949750929560808101359460a0909101359350915050565b60008060008060808587031215611b4457600080fd5b611b4d85611998565b9350611b5b60208601611998565b9250611b6960408601611998565b9396929550929360600135925050565b8015158114610bbe57600080fd5b60008060408385031215611b9a57600080fd5b611ba383611998565b91506020830135611bb381611b79565b809150509250929050565b600060208284031215611bd057600080fd5b813561083c81611b79565b600181811c90821680611bef57607f821691505b602082108103611c0f57634e487b7160e01b600052602260045260246000fd5b50919050565b600060208284031215611c2757600080fd5b815161083c81611b79565b634e487b7160e01b600052601160045260246000fd5b8181038181111561069757610697611c32565b808202811582820484141761069757610697611c32565b600082611c8f57634e487b7160e01b600052601260045260246000fd5b500490565b8082018082111561069757610697611c3256fe526577617264547261636b65723a206275726e20616d6f756e7420657863656564732062616c616e6365526577617264547261636b65723a207472616e7366657220616d6f756e74206578636565647320616c6c6f77616e6365526577617264547261636b65723a207472616e7366657220616d6f756e7420657863656564732062616c616e6365a26469706673582212207273f200e8d67f60db348ed28fef467644c8eb81c57138d6ddc58aa89fbca1ec64736f6c63430008140033","linkReferences":{}},"methodIdentifiers":{"PRECISION()":"aaf5eb68","allowance(address,address)":"dd62ed3e","allowances(address,address)":"55b6ed5c","approve(address,uint256)":"095ea7b3","balanceOf(address)":"70a08231","balances(address)":"27e235e3","claimForAccount(address,address)":"13e82e7a","claimable(address)":"402914f5","claimableReward(address)":"e9503425","cumulativeRewardPerToken()":"f5fc5076","cumulativeRewards(address)":"3792def3","depositToken()":"c89039c5","inPrivateStakingMode()":"c5fa2730","inPrivateTransferMode()":"dfbaefb1","initialize(address,address)":"485cc955","isHandler(address)":"46ea87af","isInitialized()":"392e53cd","lastDistributionTime()":"75b17350","name()":"06fdde03","owner()":"8da5cb5b","pendingRewards()":"eded3fda","previousCumulatedRewardPerToken(address)":"44a08411","renounceOwnership()":"715018a6","rewardToken()":"f7c618c1","setHandler(address,bool)":"9cb7de4b","setInPrivateModes(bool)":"f831e49e","setTokensPerInterval(uint256)":"18e20a03","stableRewardSystem()":"ef953750","stakeForAccount(address,address,address,uint256)":"790b5a6c","stakeWithPermit(address,uint256,uint256,uint8,bytes32,bytes32)":"73d6a889","stakedAmounts(address)":"10c1c103","symbol()":"95d89b41","tokensPerInterval()":"a8d93627","totalDepositSupply(address)":"552ce1dc","totalSupply()":"18160ddd","transfer(address,uint256)":"a9059cbb","transferFrom(address,address,uint256)":"23b872dd","transferOwnership(address)":"f2fde38b","unstakeForAccount(address,address,uint256,address)":"098bf59d","updateLastDistributionTime()":"3ae6d6eb","updateRewards()":"3e158b0c"},"id":15}