{"abi":[{"type":"constructor","inputs":[{"name":"_initialOwner","type":"address","internalType":"address"},{"name":"_name","type":"string","internalType":"string"},{"name":"_symbol","type":"string","internalType":"string"},{"name":"_handler","type":"address","internalType":"address"}],"stateMutability":"nonpayable"},{"type":"function","name":"PRECISION","inputs":[],"outputs":[{"name":"","type":"uint256","internalType":"uint256"}],"stateMutability":"view"},{"type":"function","name":"allowance","inputs":[{"name":"_owner","type":"address","internalType":"address"},{"name":"_spender","type":"address","internalType":"address"}],"outputs":[{"name":"","type":"uint256","internalType":"uint256"}],"stateMutability":"view"},{"type":"function","name":"allowances","inputs":[{"name":"","type":"address","internalType":"address"},{"name":"","type":"address","internalType":"address"}],"outputs":[{"name":"","type":"uint256","internalType":"uint256"}],"stateMutability":"view"},{"type":"function","name":"approve","inputs":[{"name":"_spender","type":"address","internalType":"address"},{"name":"_amount","type":"uint256","internalType":"uint256"}],"outputs":[{"name":"","type":"bool","internalType":"bool"}],"stateMutability":"nonpayable"},{"type":"function","name":"balanceOf","inputs":[{"name":"_account","type":"address","internalType":"address"}],"outputs":[{"name":"","type":"uint256","internalType":"uint256"}],"stateMutability":"view"},{"type":"function","name":"balances","inputs":[{"name":"","type":"address","internalType":"address"}],"outputs":[{"name":"","type":"uint256","internalType":"uint256"}],"stateMutability":"view"},{"type":"function","name":"claimForAccount","inputs":[{"name":"_account","type":"address","internalType":"address"},{"name":"_receiver","type":"address","internalType":"address"}],"outputs":[{"name":"","type":"uint256","internalType":"uint256"}],"stateMutability":"nonpayable"},{"type":"function","name":"claimable","inputs":[{"name":"_account","type":"address","internalType":"address"}],"outputs":[{"name":"","type":"uint256","internalType":"uint256"}],"stateMutability":"view"},{"type":"function","name":"claimableReward","inputs":[{"name":"","type":"address","internalType":"address"}],"outputs":[{"name":"","type":"uint256","internalType":"uint256"}],"stateMutability":"view"},{"type":"function","name":"cumulativeRewardPerToken","inputs":[],"outputs":[{"name":"","type":"uint256","internalType":"uint256"}],"stateMutability":"view"},{"type":"function","name":"cumulativeRewards","inputs":[{"name":"","type":"address","internalType":"address"}],"outputs":[{"name":"","type":"uint256","internalType":"uint256"}],"stateMutability":"view"},{"type":"function","name":"decimals","inputs":[],"outputs":[{"name":"","type":"uint8","internalType":"uint8"}],"stateMutability":"view"},{"type":"function","name":"depositToken","inputs":[],"outputs":[{"name":"","type":"address","internalType":"address"}],"stateMutability":"view"},{"type":"function","name":"inPrivateStakingMode","inputs":[],"outputs":[{"name":"","type":"bool","internalType":"bool"}],"stateMutability":"view"},{"type":"function","name":"inPrivateTransferMode","inputs":[],"outputs":[{"name":"","type":"bool","internalType":"bool"}],"stateMutability":"view"},{"type":"function","name":"initialize","inputs":[{"name":"_depositToken","type":"address","internalType":"address"},{"name":"_rewardToken","type":"address","internalType":"address"}],"outputs":[],"stateMutability":"nonpayable"},{"type":"function","name":"isHandler","inputs":[{"name":"","type":"address","internalType":"address"}],"outputs":[{"name":"","type":"bool","internalType":"bool"}],"stateMutability":"view"},{"type":"function","name":"isInitialized","inputs":[],"outputs":[{"name":"","type":"bool","internalType":"bool"}],"stateMutability":"view"},{"type":"function","name":"lastDistributionTime","inputs":[],"outputs":[{"name":"","type":"uint256","internalType":"uint256"}],"stateMutability":"view"},{"type":"function","name":"name","inputs":[],"outputs":[{"name":"","type":"string","internalType":"string"}],"stateMutability":"view"},{"type":"function","name":"owner","inputs":[],"outputs":[{"name":"","type":"address","internalType":"address"}],"stateMutability":"view"},{"type":"function","name":"pendingRewards","inputs":[],"outputs":[{"name":"","type":"uint256","internalType":"uint256"}],"stateMutability":"view"},{"type":"function","name":"previousCumulatedRewardPerToken","inputs":[{"name":"","type":"address","internalType":"address"}],"outputs":[{"name":"","type":"uint256","internalType":"uint256"}],"stateMutability":"view"},{"type":"function","name":"renounceOwnership","inputs":[],"outputs":[],"stateMutability":"nonpayable"},{"type":"function","name":"rewardToken","inputs":[],"outputs":[{"name":"","type":"address","internalType":"address"}],"stateMutability":"view"},{"type":"function","name":"setHandler","inputs":[{"name":"_handler","type":"address","internalType":"address"},{"name":"_isActive","type":"bool","internalType":"bool"}],"outputs":[],"stateMutability":"nonpayable"},{"type":"function","name":"setInPrivateModes","inputs":[{"name":"_inPrivateTransferMode","type":"bool","internalType":"bool"}],"outputs":[],"stateMutability":"nonpayable"},{"type":"function","name":"setTokensPerInterval","inputs":[{"name":"_amount","type":"uint256","internalType":"uint256"}],"outputs":[],"stateMutability":"nonpayable"},{"type":"function","name":"stableRewardSystem","inputs":[],"outputs":[{"name":"","type":"bool","internalType":"bool"}],"stateMutability":"view"},{"type":"function","name":"stakeForAccount","inputs":[{"name":"_fundingAccount","type":"address","internalType":"address"},{"name":"_account","type":"address","internalType":"address"},{"name":"_amount","type":"uint256","internalType":"uint256"}],"outputs":[],"stateMutability":"nonpayable"},{"type":"function","name":"stakeWithPermit","inputs":[{"name":"_permitAmount","type":"uint256","internalType":"uint256"},{"name":"_amount","type":"uint256","internalType":"uint256"},{"name":"deadline","type":"uint256","internalType":"uint256"},{"name":"v","type":"uint8","internalType":"uint8"},{"name":"r","type":"bytes32","internalType":"bytes32"},{"name":"s","type":"bytes32","internalType":"bytes32"}],"outputs":[],"stateMutability":"nonpayable"},{"type":"function","name":"stakedAmounts","inputs":[{"name":"","type":"address","internalType":"address"}],"outputs":[{"name":"","type":"uint256","internalType":"uint256"}],"stateMutability":"view"},{"type":"function","name":"symbol","inputs":[],"outputs":[{"name":"","type":"string","internalType":"string"}],"stateMutability":"view"},{"type":"function","name":"tokensPerInterval","inputs":[],"outputs":[{"name":"","type":"uint256","internalType":"uint256"}],"stateMutability":"view"},{"type":"function","name":"totalDepositSupply","inputs":[{"name":"","type":"address","internalType":"address"}],"outputs":[{"name":"","type":"uint256","internalType":"uint256"}],"stateMutability":"view"},{"type":"function","name":"totalSupply","inputs":[],"outputs":[{"name":"","type":"uint256","internalType":"uint256"}],"stateMutability":"view"},{"type":"function","name":"transfer","inputs":[{"name":"_recipient","type":"address","internalType":"address"},{"name":"_amount","type":"uint256","internalType":"uint256"}],"outputs":[{"name":"","type":"bool","internalType":"bool"}],"stateMutability":"nonpayable"},{"type":"function","name":"transferFrom","inputs":[{"name":"_sender","type":"address","internalType":"address"},{"name":"_recipient","type":"address","internalType":"address"},{"name":"_amount","type":"uint256","internalType":"uint256"}],"outputs":[{"name":"","type":"bool","internalType":"bool"}],"stateMutability":"nonpayable"},{"type":"function","name":"transferOwnership","inputs":[{"name":"newOwner","type":"address","internalType":"address"}],"outputs":[],"stateMutability":"nonpayable"},{"type":"function","name":"unstakeForAccount","inputs":[{"name":"_account","type":"address","internalType":"address"},{"name":"_amount","type":"uint256","internalType":"uint256"},{"name":"_receiver","type":"address","internalType":"address"}],"outputs":[],"stateMutability":"nonpayable"},{"type":"function","name":"updateLastDistributionTime","inputs":[],"outputs":[],"stateMutability":"nonpayable"},{"type":"function","name":"updateRewards","inputs":[],"outputs":[],"stateMutability":"nonpayable"},{"type":"event","name":"Approval","inputs":[{"name":"owner","type":"address","indexed":true,"internalType":"address"},{"name":"spender","type":"address","indexed":true,"internalType":"address"},{"name":"value","type":"uint256","indexed":false,"internalType":"uint256"}],"anonymous":false},{"type":"event","name":"Claim","inputs":[{"name":"receiver","type":"address","indexed":false,"internalType":"address"},{"name":"amount","type":"uint256","indexed":false,"internalType":"uint256"}],"anonymous":false},{"type":"event","name":"OwnershipTransferred","inputs":[{"name":"previousOwner","type":"address","indexed":true,"internalType":"address"},{"name":"newOwner","type":"address","indexed":true,"internalType":"address"}],"anonymous":false},{"type":"event","name":"TokensPerIntervalChange","inputs":[{"name":"amount","type":"uint256","indexed":false,"internalType":"uint256"}],"anonymous":false},{"type":"event","name":"Transfer","inputs":[{"name":"from","type":"address","indexed":true,"internalType":"address"},{"name":"to","type":"address","indexed":true,"internalType":"address"},{"name":"value","type":"uint256","indexed":false,"internalType":"uint256"}],"anonymous":false},{"type":"error","name":"OwnableInvalidOwner","inputs":[{"name":"owner","type":"address","internalType":"address"}]},{"type":"error","name":"OwnableUnauthorizedAccount","inputs":[{"name":"account","type":"address","internalType":"address"}]},{"type":"error","name":"ReentrancyGuardReentrantCall","inputs":[]}],"bytecode":{"object":"0x60806040523480156200001157600080fd5b5060405162002120380380620021208339810160408190526200003491620001f3565b6001600055836001600160a01b0381166200006957604051631e4fbdf760e01b81526000600482015260240160405180910390fd5b6200007481620000bf565b50600c62000083848262000312565b50600d62000092838262000312565b506001600160a01b03166000908152600b60205260409020805460ff1916600117905550620003de915050565b600180546001600160a01b038381166001600160a01b0319831681179093556040519116919082907f8be0079c531659141344cd1fd0a4f28419497f9722a3daafe3b4186f6b6457e090600090a35050565b80516001600160a01b03811681146200012957600080fd5b919050565b634e487b7160e01b600052604160045260246000fd5b600082601f8301126200015657600080fd5b81516001600160401b03808211156200017357620001736200012e565b604051601f8301601f19908116603f011681019082821181831017156200019e576200019e6200012e565b81604052838152602092508683858801011115620001bb57600080fd5b600091505b83821015620001df5785820183015181830184015290820190620001c0565b600093810190920192909252949350505050565b600080600080608085870312156200020a57600080fd5b620002158562000111565b60208601519094506001600160401b03808211156200023357600080fd5b620002418883890162000144565b945060408701519150808211156200025857600080fd5b50620002678782880162000144565b925050620002786060860162000111565b905092959194509250565b600181811c908216806200029857607f821691505b602082108103620002b957634e487b7160e01b600052602260045260246000fd5b50919050565b601f8211156200030d57600081815260208120601f850160051c81016020861015620002e85750805b601f850160051c820191505b818110156200030957828155600101620002f4565b5050505b505050565b81516001600160401b038111156200032e576200032e6200012e565b62000346816200033f845462000283565b84620002bf565b602080601f8311600181146200037e5760008415620003655750858301515b600019600386901b1c1916600185901b17855562000309565b600085815260208120601f198616915b82811015620003af578886015182559484019460019091019084016200038e565b5085821015620003ce5787850151600019600388901b60f8161c191681555b5050505050600190811b01905550565b611d3280620003ee6000396000f3fe608060405234801561001057600080fd5b506004361061025e5760003560e01c806370a0823111610146578063c5fa2730116100c3578063eded3fda11610087578063eded3fda146105b4578063ef953750146105bc578063f2fde38b146105d0578063f5fc5076146105e3578063f7c618c1146105ec578063f831e49e146105ff57600080fd5b8063c5fa273014610520578063c89039c514610534578063dd62ed3e14610547578063dfbaefb114610580578063e95034251461059457600080fd5b80639cb7de4b1161010a5780639cb7de4b146104ca578063a8d93627146104dd578063a9059cbb146104e6578063aaf5eb68146104f9578063b5f73e8d1461050d57600080fd5b806370a0823114610463578063715018a61461048c57806375b17350146104945780638da5cb5b1461049d57806395d89b41146104c257600080fd5b80633792def3116101df57806344a08411116101a357806344a08411146103af57806346ea87af146103cf578063485cc955146103f2578063552ce1dc1461040557806355b6ed5c146104255780635668b02e1461045057600080fd5b80633792def314610358578063392e53cd146103785780633ae6d6eb1461038c5780633e158b0c14610394578063402914f51461039c57600080fd5b806318e20a031161022657806318e20a03146102ee57806323b872dd1461030357806327e235e314610316578063313ce5671461033657806333080b6e1461034557600080fd5b806306fdde0314610263578063095ea7b31461028157806310c1c103146102a457806313e82e7a146102d257806318160ddd146102e5575b600080fd5b61026b610612565b604051610278919061197a565b60405180910390f35b61029461028f3660046119e4565b6106a0565b6040519015158152602001610278565b6102c46102b2366004611a0e565b60076020526000908152604090205481565b604051908152602001610278565b6102c46102e0366004611a29565b6106b7565b6102c460105481565b6103016102fc366004611a5c565b6106df565b005b610294610311366004611a75565b610797565b6102c4610324366004611a0e565b60056020526000908152604090205481565b60405160128152602001610278565b610301610353366004611ab1565b610831565b6102c4610366366004611a0e565b600a6020526000908152604090205481565b60035461029490600160a01b900460ff1681565b61030161085b565b610301610869565b6102c46103aa366004611a0e565b610887565b6102c46103bd366004611a0e565b60096020526000908152604090205481565b6102946103dd366004611a0e565b600b6020526000908152604090205460ff1681565b610301610400366004611a29565b61097a565b6102c4610413366004611a0e565b60046020526000908152604090205481565b6102c4610433366004611a29565b600660209081526000928352604080842090915290825290205481565b61030161045e366004611aed565b610a34565b6102c4610471366004611a0e565b6001600160a01b031660009081526005602052604090205490565b610301610ae1565b6102c4600f5481565b6001546001600160a01b03165b6040516001600160a01b039091168152602001610278565b61026b610af3565b6103016104d8366004611b54565b610b00565b6102c4600e5481565b6102946104f43660046119e4565b610b33565b6102c46c0c9f2c9cd04674edea4000000081565b61030161051b366004611a75565b610b40565b60035461029490600160b01b900460ff1681565b6002546104aa906001600160a01b031681565b6102c4610555366004611a29565b6001600160a01b03918216600090815260066020908152604080832093909416825291909152205490565b60035461029490600160a81b900460ff1681565b6102c46105a2366004611a0e565b60086020526000908152604090205481565b6102c4610b5b565b60035461029490600160b81b900460ff1681565b6103016105de366004611a0e565b610b99565b6102c460115481565b6003546104aa906001600160a01b031681565b61030161060d366004611b8b565b610bd7565b600c805461061f90611ba8565b80601f016020809104026020016040519081016040528092919081815260200182805461064b90611ba8565b80156106985780601f1061066d57610100808354040283529160200191610698565b820191906000526020600020905b81548152906001019060200180831161067b57829003601f168201915b505050505081565b60006106ad338484610bfd565b5060015b92915050565b60006106c1610d33565b6106c9610d5d565b6106d38383610dbc565b90506106b16001600055565b6106e7610ebe565b600f546000036107525760405162461bcd60e51b815260206004820152602b60248201527f526577617264547261636b65723a20696e76616c6964206c617374446973747260448201526a69627574696f6e54696d6560a81b60648201526084015b60405180910390fd5b61075c6000610eeb565b600e8190556040518181527f98dc76c39aa5a5dcb749f8750a65db3dfa1e14bcc1591a9c16a7420e5da748f89060200160405180910390a150565b336000908152600b602052604081205460ff16156107c2576107ba848484611075565b50600161082a565b600061080c83604051806060016040528060308152602001611c9f603091396001600160a01b03881660009081526006602090815260408083203384529091529020549190611225565b9050610819853383610bfd565b610824858585611075565b60019150505b9392505050565b610839610d33565b610841610d5d565b61084c83838361125f565b6108566001600055565b505050565b610863610ebe565b42600f55565b610871610d33565b61087b6000610eeb565b6108856001600055565b565b6001600160a01b0381166000908152600760205260408120548082036108c45750506001600160a01b031660009081526008602052604090205490565b60105460006108e86c0c9f2c9cd04674edea400000006108e2610b5b565b9061142d565b905060006109026108f983856114af565b601154906114f1565b6001600160a01b03871660009081526009602052604090205490915061097090610951906c0c9f2c9cd04674edea400000009061094b90610944908690611550565b889061142d565b906114af565b6001600160a01b038816600090815260086020526040902054906114f1565b9695505050505050565b610982610ebe565b600354600160a01b900460ff16156109e75760405162461bcd60e51b815260206004820152602260248201527f526577617264547261636b65723a20616c726561647920696e697469616c697a604482015261195960f21b6064820152608401610749565b60038054600280546001600160a01b039586166001600160a01b031990911617905560ff60a81b19929093166001600160a81b031990931692909217600160a01b1716600160a81b179055565b610a3c610d33565b60025460405163d505accf60e01b8152336004820152306024820152604481018890526064810186905260ff8516608482015260a4810184905260c481018390526001600160a01b039091169063d505accf9060e401600060405180830381600087803b158015610aac57600080fd5b505af1158015610ac0573d6000803e3d6000fd5b50505050610acf333387611592565b610ad96001600055565b505050505050565b610ae9610ebe565b61088560006116fc565b600d805461061f90611ba8565b610b08610ebe565b6001600160a01b03919091166000908152600b60205260409020805460ff1916911515919091179055565b60006106ad338484611075565b610b48610d33565b610b50610d5d565b61084c838383611592565b6000600f544203610b6c5750600090565b6000610b83600f544261155090919063ffffffff16565b600e54909150610b93908261142d565b91505090565b610ba1610ebe565b6001600160a01b038116610bcb57604051631e4fbdf760e01b815260006004820152602401610749565b610bd4816116fc565b50565b610bdf610ebe565b60038054911515600160a81b0260ff60a81b19909216919091179055565b6001600160a01b038316610c685760405162461bcd60e51b815260206004820152602c60248201527f526577617264547261636b65723a20617070726f76652066726f6d207468652060448201526b7a65726f206164647265737360a01b6064820152608401610749565b6001600160a01b038216610cd15760405162461bcd60e51b815260206004820152602a60248201527f526577617264547261636b65723a20617070726f766520746f20746865207a65604482015269726f206164647265737360b01b6064820152608401610749565b6001600160a01b0383811660008181526006602090815260408083209487168084529482529182902085905590518481527f8c5be1e5ebec7d5bd14f71427d1e84f3dd0314c0f7b2291e5b200ac8c7c3b92591015b60405180910390a3505050565b600260005403610d5657604051633ee5aeb560e01b815260040160405180910390fd5b6002600055565b336000908152600b602052604090205460ff166108855760405162461bcd60e51b815260206004820152601860248201527f526577617264547261636b65723a20666f7262696464656e00000000000000006044820152606401610749565b600354600090600160b81b900460ff1615610dda57610dda83610eeb565b6001600160a01b03831660009081526008602052604081208054919055801561082a5760035460405163a9059cbb60e01b81526001600160a01b038581166004830152602482018490529091169063a9059cbb906044016020604051808303816000875af1158015610e50573d6000803e3d6000fd5b505050506040513d601f19601f82011682018060405250810190610e749190611be2565b50604080516001600160a01b0386168152602081018390527f47cee97cb7acd717b3c0aa1435d004cd5b3c8c57d70dbceb4e4458bbd60e39d4910160405180910390a19392505050565b6001546001600160a01b031633146108855760405163118cdaa760e01b8152336004820152602401610749565b6000610ef5610b5b565b42600f55601054601154919250908115801590610f125750600083115b15610f4457610f3c610f358361094b866c0c9f2c9cd04674edea4000000061142d565b82906114f1565b601181905590505b80600003610f525750505050565b6001600160a01b0384161561106f576001600160a01b0384166000908152600760209081526040808320546009909252822054909190610fb1906c0c9f2c9cd04674edea400000009061094b90610faa908790611550565b859061142d565b6001600160a01b03871660009081526008602052604081205491925090610fd890836114f1565b6001600160a01b0388166000908152600860209081526040808320849055600990915290208590559050801580159061102857506001600160a01b03871660009081526007602052604090205415155b1561106b576001600160a01b0387166000908152600a602052604081205461105090846114f1565b6001600160a01b0389166000908152600a6020526040902055505b5050505b50505050565b6001600160a01b0383166110e15760405162461bcd60e51b815260206004820152602d60248201527f526577617264547261636b65723a207472616e736665722066726f6d2074686560448201526c207a65726f206164647265737360981b6064820152608401610749565b6001600160a01b03821661114b5760405162461bcd60e51b815260206004820152602b60248201527f526577617264547261636b65723a207472616e7366657220746f20746865207a60448201526a65726f206164647265737360a81b6064820152608401610749565b600354600160a81b900460ff161561116557611165610d5d565b6111a2816040518060600160405280602e8152602001611ccf602e91396001600160a01b0386166000908152600560205260409020549190611225565b6001600160a01b0380851660009081526005602052604080822093909355908416815220546111d190826114f1565b6001600160a01b0380841660008181526005602052604090819020939093559151908516907fddf252ad1be2c89b69c2b068fc378daa952ba7f163c4a11628f55a4df523b3ef90610d269085815260200190565b600081848411156112495760405162461bcd60e51b8152600401610749919061197a565b5060006112568486611c15565b95945050505050565b600082116112af5760405162461bcd60e51b815260206004820152601e60248201527f526577617264547261636b65723a20696e76616c6964205f616d6f756e7400006044820152606401610749565b600354600160b81b900460ff16156112ca576112ca83610eeb565b6001600160a01b038316600090815260076020526040902054828110156113475760405162461bcd60e51b815260206004820152602b60248201527f526577617264547261636b65723a205f616d6f756e742065786365656473207360448201526a1d185ad959105b5bdd5b9d60aa1b6064820152608401610749565b6113518184611550565b6001600160a01b0380861660009081526007602090815260408083209490945560025490921681526004909152205461138a9084611550565b6002546001600160a01b03166000908152600460205260409020556113af848461174e565b60025460405163a9059cbb60e01b81526001600160a01b038481166004830152602482018690529091169063a9059cbb906044016020604051808303816000875af1158015611402573d6000803e3d6000fd5b505050506040513d601f19601f820116820180604052508101906114269190611be2565b5050505050565b60008260000361143f575060006106b1565b600061144b8385611c28565b9050826114588583611c3f565b1461082a5760405162461bcd60e51b815260206004820152602160248201527f536166654d6174683a206d756c7469706c69636174696f6e206f766572666c6f6044820152607760f81b6064820152608401610749565b600061082a83836040518060400160405280601a81526020017f536166654d6174683a206469766973696f6e206279207a65726f000000000000815250611862565b6000806114fe8385611c61565b90508381101561082a5760405162461bcd60e51b815260206004820152601b60248201527f536166654d6174683a206164646974696f6e206f766572666c6f7700000000006044820152606401610749565b600061082a83836040518060400160405280601e81526020017f536166654d6174683a207375627472616374696f6e206f766572666c6f770000815250611225565b600081116115e25760405162461bcd60e51b815260206004820152601e60248201527f526577617264547261636b65723a20696e76616c6964205f616d6f756e7400006044820152606401610749565b6002546040516323b872dd60e01b81526001600160a01b03858116600483015230602483015260448201849052909116906323b872dd906064016020604051808303816000875af115801561163b573d6000803e3d6000fd5b505050506040513d601f19601f8201168201806040525081019061165f9190611be2565b50600354600160b81b900460ff161561167b5761167b82610eeb565b6001600160a01b03821660009081526007602052604090205461169e90826114f1565b6001600160a01b038084166000908152600760209081526040808320949094556002549092168152600490915220546116d790826114f1565b6002546001600160a01b03166000908152600460205260409020556108568282611890565b600180546001600160a01b038381166001600160a01b0319831681179093556040519116919082907f8be0079c531659141344cd1fd0a4f28419497f9722a3daafe3b4186f6b6457e090600090a35050565b6001600160a01b0382166117b65760405162461bcd60e51b815260206004820152602960248201527f526577617264547261636b65723a206275726e2066726f6d20746865207a65726044820152686f206164647265737360b81b6064820152608401610749565b6117f3816040518060600160405280602a8152602001611c75602a91396001600160a01b0385166000908152600560205260409020549190611225565b6001600160a01b0383166000908152600560205260409020556010546118199082611550565b6010556040518181526000906001600160a01b038416907fddf252ad1be2c89b69c2b068fc378daa952ba7f163c4a11628f55a4df523b3ef906020015b60405180910390a35050565b600081836118835760405162461bcd60e51b8152600401610749919061197a565b5060006112568486611c3f565b6001600160a01b0382166118f65760405162461bcd60e51b815260206004820152602760248201527f526577617264547261636b65723a206d696e7420746f20746865207a65726f206044820152666164647265737360c81b6064820152608401610749565b60105461190390826114f1565b6010556001600160a01b03821660009081526005602052604090205461192990826114f1565b6001600160a01b0383166000818152600560205260408082209390935591519091907fddf252ad1be2c89b69c2b068fc378daa952ba7f163c4a11628f55a4df523b3ef906118569085815260200190565b600060208083528351808285015260005b818110156119a75785810183015185820160400152820161198b565b506000604082860101526040601f19601f8301168501019250505092915050565b80356001600160a01b03811681146119df57600080fd5b919050565b600080604083850312156119f757600080fd5b611a00836119c8565b946020939093013593505050565b600060208284031215611a2057600080fd5b61082a826119c8565b60008060408385031215611a3c57600080fd5b611a45836119c8565b9150611a53602084016119c8565b90509250929050565b600060208284031215611a6e57600080fd5b5035919050565b600080600060608486031215611a8a57600080fd5b611a93846119c8565b9250611aa1602085016119c8565b9150604084013590509250925092565b600080600060608486031215611ac657600080fd5b611acf846119c8565b925060208401359150611ae4604085016119c8565b90509250925092565b60008060008060008060c08789031215611b0657600080fd5b863595506020870135945060408701359350606087013560ff81168114611b2c57600080fd5b9598949750929560808101359460a0909101359350915050565b8015158114610bd457600080fd5b60008060408385031215611b6757600080fd5b611b70836119c8565b91506020830135611b8081611b46565b809150509250929050565b600060208284031215611b9d57600080fd5b813561082a81611b46565b600181811c90821680611bbc57607f821691505b602082108103611bdc57634e487b7160e01b600052602260045260246000fd5b50919050565b600060208284031215611bf457600080fd5b815161082a81611b46565b634e487b7160e01b600052601160045260246000fd5b818103818111156106b1576106b1611bff565b80820281158282048414176106b1576106b1611bff565b600082611c5c57634e487b7160e01b600052601260045260246000fd5b500490565b808201808211156106b1576106b1611bff56fe526577617264547261636b65723a206275726e20616d6f756e7420657863656564732062616c616e6365526577617264547261636b65723a207472616e7366657220616d6f756e74206578636565647320616c6c6f77616e6365526577617264547261636b65723a207472616e7366657220616d6f756e7420657863656564732062616c616e6365a26469706673582212202eb9f2c95bcb508dd5e18e9d7acad24878a443ca7c61cc2aa09ec0a1f1999c6564736f6c63430008140033","linkReferences":{}},"methodIdentifiers":{"PRECISION()":"aaf5eb68","allowance(address,address)":"dd62ed3e","allowances(address,address)":"55b6ed5c","approve(address,uint256)":"095ea7b3","balanceOf(address)":"70a08231","balances(address)":"27e235e3","claimForAccount(address,address)":"13e82e7a","claimable(address)":"402914f5","claimableReward(address)":"e9503425","cumulativeRewardPerToken()":"f5fc5076","cumulativeRewards(address)":"3792def3","decimals()":"313ce567","depositToken()":"c89039c5","inPrivateStakingMode()":"c5fa2730","inPrivateTransferMode()":"dfbaefb1","initialize(address,address)":"485cc955","isHandler(address)":"46ea87af","isInitialized()":"392e53cd","lastDistributionTime()":"75b17350","name()":"06fdde03","owner()":"8da5cb5b","pendingRewards()":"eded3fda","previousCumulatedRewardPerToken(address)":"44a08411","renounceOwnership()":"715018a6","rewardToken()":"f7c618c1","setHandler(address,bool)":"9cb7de4b","setInPrivateModes(bool)":"f831e49e","setTokensPerInterval(uint256)":"18e20a03","stableRewardSystem()":"ef953750","stakeForAccount(address,address,uint256)":"b5f73e8d","stakeWithPermit(uint256,uint256,uint256,uint8,bytes32,bytes32)":"5668b02e","stakedAmounts(address)":"10c1c103","symbol()":"95d89b41","tokensPerInterval()":"a8d93627","totalDepositSupply(address)":"552ce1dc","totalSupply()":"18160ddd","transfer(address,uint256)":"a9059cbb","transferFrom(address,address,uint256)":"23b872dd","transferOwnership(address)":"f2fde38b","unstakeForAccount(address,uint256,address)":"33080b6e","updateLastDistributionTime()":"3ae6d6eb","updateRewards()":"3e158b0c"},"id":15}