{"abi":[{"type":"constructor","inputs":[{"name":"_initialOwner","type":"address","internalType":"address"},{"name":"_name","type":"string","internalType":"string"},{"name":"_symbol","type":"string","internalType":"string"},{"name":"_handler","type":"address","internalType":"address"}],"stateMutability":"nonpayable"},{"type":"function","name":"BASIS_POINTS_DIVISOR","inputs":[],"outputs":[{"name":"","type":"uint256","internalType":"uint256"}],"stateMutability":"view"},{"type":"function","name":"PRECISION","inputs":[],"outputs":[{"name":"","type":"uint256","internalType":"uint256"}],"stateMutability":"view"},{"type":"function","name":"allowance","inputs":[{"name":"_owner","type":"address","internalType":"address"},{"name":"_spender","type":"address","internalType":"address"}],"outputs":[{"name":"","type":"uint256","internalType":"uint256"}],"stateMutability":"view"},{"type":"function","name":"allowances","inputs":[{"name":"","type":"address","internalType":"address"},{"name":"","type":"address","internalType":"address"}],"outputs":[{"name":"","type":"uint256","internalType":"uint256"}],"stateMutability":"view"},{"type":"function","name":"approve","inputs":[{"name":"_spender","type":"address","internalType":"address"},{"name":"_amount","type":"uint256","internalType":"uint256"}],"outputs":[{"name":"","type":"bool","internalType":"bool"}],"stateMutability":"nonpayable"},{"type":"function","name":"balanceOf","inputs":[{"name":"_account","type":"address","internalType":"address"}],"outputs":[{"name":"","type":"uint256","internalType":"uint256"}],"stateMutability":"view"},{"type":"function","name":"balanceOracle","inputs":[],"outputs":[{"name":"","type":"address","internalType":"address"}],"stateMutability":"view"},{"type":"function","name":"balances","inputs":[{"name":"","type":"address","internalType":"address"}],"outputs":[{"name":"","type":"uint256","internalType":"uint256"}],"stateMutability":"view"},{"type":"function","name":"claimForAccount","inputs":[{"name":"_account","type":"address","internalType":"address"},{"name":"_receiver","type":"address","internalType":"address"}],"outputs":[{"name":"","type":"uint256","internalType":"uint256"}],"stateMutability":"nonpayable"},{"type":"function","name":"claimable","inputs":[{"name":"_account","type":"address","internalType":"address"}],"outputs":[{"name":"","type":"uint256","internalType":"uint256"}],"stateMutability":"view"},{"type":"function","name":"claimableReward","inputs":[{"name":"","type":"address","internalType":"address"}],"outputs":[{"name":"","type":"uint256","internalType":"uint256"}],"stateMutability":"view"},{"type":"function","name":"cumulativeRewardPerToken","inputs":[],"outputs":[{"name":"","type":"uint256","internalType":"uint256"}],"stateMutability":"view"},{"type":"function","name":"cumulativeRewards","inputs":[{"name":"","type":"address","internalType":"address"}],"outputs":[{"name":"","type":"uint256","internalType":"uint256"}],"stateMutability":"view"},{"type":"function","name":"decimals","inputs":[],"outputs":[{"name":"","type":"uint8","internalType":"uint8"}],"stateMutability":"view"},{"type":"function","name":"feeBPS","inputs":[],"outputs":[{"name":"","type":"uint256","internalType":"uint256"}],"stateMutability":"view"},{"type":"function","name":"inPrivateTransferMode","inputs":[],"outputs":[{"name":"","type":"bool","internalType":"bool"}],"stateMutability":"view"},{"type":"function","name":"initialize","inputs":[{"name":"_stableCoin","type":"address","internalType":"address"},{"name":"_balanceOracle","type":"address","internalType":"address"}],"outputs":[],"stateMutability":"nonpayable"},{"type":"function","name":"isHandler","inputs":[{"name":"","type":"address","internalType":"address"}],"outputs":[{"name":"","type":"bool","internalType":"bool"}],"stateMutability":"view"},{"type":"function","name":"isInitialized","inputs":[],"outputs":[{"name":"","type":"bool","internalType":"bool"}],"stateMutability":"view"},{"type":"function","name":"lastDistributionTime","inputs":[],"outputs":[{"name":"","type":"uint256","internalType":"uint256"}],"stateMutability":"view"},{"type":"function","name":"name","inputs":[],"outputs":[{"name":"","type":"string","internalType":"string"}],"stateMutability":"view"},{"type":"function","name":"oracleCallback","inputs":[{"name":"_account","type":"address","internalType":"address"},{"name":"_stakedAmount","type":"uint256","internalType":"uint256"},{"name":"_amount","type":"uint256","internalType":"uint256"}],"outputs":[],"stateMutability":"nonpayable"},{"type":"function","name":"oracleCallbackEndDay","inputs":[{"name":"_accounts","type":"address[]","internalType":"address[]"},{"name":"_stakedAmounts","type":"uint256[]","internalType":"uint256[]"}],"outputs":[],"stateMutability":"nonpayable"},{"type":"function","name":"owner","inputs":[],"outputs":[{"name":"","type":"address","internalType":"address"}],"stateMutability":"view"},{"type":"function","name":"pendingRewards","inputs":[],"outputs":[{"name":"","type":"uint256","internalType":"uint256"}],"stateMutability":"view"},{"type":"function","name":"previousCumulatedRewardPerToken","inputs":[{"name":"","type":"address","internalType":"address"}],"outputs":[{"name":"","type":"uint256","internalType":"uint256"}],"stateMutability":"view"},{"type":"function","name":"renounceOwnership","inputs":[],"outputs":[],"stateMutability":"nonpayable"},{"type":"function","name":"setFee","inputs":[{"name":"_newFee","type":"uint8","internalType":"uint8"}],"outputs":[],"stateMutability":"nonpayable"},{"type":"function","name":"setHandler","inputs":[{"name":"_handler","type":"address","internalType":"address"},{"name":"_isActive","type":"bool","internalType":"bool"}],"outputs":[],"stateMutability":"nonpayable"},{"type":"function","name":"setInPrivateModes","inputs":[{"name":"_inPrivateTransferMode","type":"bool","internalType":"bool"}],"outputs":[],"stateMutability":"nonpayable"},{"type":"function","name":"setOracleAddress","inputs":[{"name":"_balanceOracle","type":"address","internalType":"address"}],"outputs":[],"stateMutability":"nonpayable"},{"type":"function","name":"setRewardsModes","inputs":[{"name":"_stableRewardSystem","type":"bool","internalType":"bool"}],"outputs":[],"stateMutability":"nonpayable"},{"type":"function","name":"setTokensPerInterval","inputs":[{"name":"_amount","type":"uint256","internalType":"uint256"}],"outputs":[],"stateMutability":"nonpayable"},{"type":"function","name":"stableCoin","inputs":[],"outputs":[{"name":"","type":"address","internalType":"address"}],"stateMutability":"view"},{"type":"function","name":"stableRewardSystem","inputs":[],"outputs":[{"name":"","type":"bool","internalType":"bool"}],"stateMutability":"view"},{"type":"function","name":"stakeForAccount","inputs":[{"name":"_fundingAccount","type":"address","internalType":"address"},{"name":"_account","type":"address","internalType":"address"},{"name":"_amount","type":"uint256","internalType":"uint256"}],"outputs":[],"stateMutability":"nonpayable"},{"type":"function","name":"stakeWithPermit","inputs":[{"name":"_amount","type":"uint256","internalType":"uint256"},{"name":"_permitAmount","type":"uint256","internalType":"uint256"},{"name":"deadline","type":"uint256","internalType":"uint256"},{"name":"v","type":"uint8","internalType":"uint8"},{"name":"r","type":"bytes32","internalType":"bytes32"},{"name":"s","type":"bytes32","internalType":"bytes32"}],"outputs":[],"stateMutability":"nonpayable"},{"type":"function","name":"stakedAmounts","inputs":[{"name":"","type":"address","internalType":"address"}],"outputs":[{"name":"","type":"uint256","internalType":"uint256"}],"stateMutability":"view"},{"type":"function","name":"symbol","inputs":[],"outputs":[{"name":"","type":"string","internalType":"string"}],"stateMutability":"view"},{"type":"function","name":"tokensPerInterval","inputs":[],"outputs":[{"name":"","type":"uint256","internalType":"uint256"}],"stateMutability":"view"},{"type":"function","name":"totalDepositSupply","inputs":[{"name":"","type":"address","internalType":"address"}],"outputs":[{"name":"","type":"uint256","internalType":"uint256"}],"stateMutability":"view"},{"type":"function","name":"totalSupply","inputs":[],"outputs":[{"name":"","type":"uint256","internalType":"uint256"}],"stateMutability":"view"},{"type":"function","name":"transfer","inputs":[{"name":"_recipient","type":"address","internalType":"address"},{"name":"_amount","type":"uint256","internalType":"uint256"}],"outputs":[{"name":"","type":"bool","internalType":"bool"}],"stateMutability":"nonpayable"},{"type":"function","name":"transferFrom","inputs":[{"name":"_sender","type":"address","internalType":"address"},{"name":"_recipient","type":"address","internalType":"address"},{"name":"_amount","type":"uint256","internalType":"uint256"}],"outputs":[{"name":"","type":"bool","internalType":"bool"}],"stateMutability":"nonpayable"},{"type":"function","name":"transferOwnership","inputs":[{"name":"newOwner","type":"address","internalType":"address"}],"outputs":[],"stateMutability":"nonpayable"},{"type":"function","name":"unstakeForAccount","inputs":[{"name":"_account","type":"address","internalType":"address"},{"name":"_amount","type":"uint256","internalType":"uint256"},{"name":"_receiver","type":"address","internalType":"address"}],"outputs":[],"stateMutability":"nonpayable"},{"type":"function","name":"updateLastDistributionTime","inputs":[],"outputs":[],"stateMutability":"nonpayable"},{"type":"function","name":"updateRewards","inputs":[],"outputs":[],"stateMutability":"nonpayable"},{"type":"function","name":"viewFeeRevenue","inputs":[],"outputs":[{"name":"","type":"uint256","internalType":"uint256"}],"stateMutability":"view"},{"type":"function","name":"withdrawFeeRevenue","inputs":[{"name":"_amount","type":"uint256","internalType":"uint256"}],"outputs":[],"stateMutability":"nonpayable"},{"type":"event","name":"Approval","inputs":[{"name":"owner","type":"address","indexed":true,"internalType":"address"},{"name":"spender","type":"address","indexed":true,"internalType":"address"},{"name":"value","type":"uint256","indexed":false,"internalType":"uint256"}],"anonymous":false},{"type":"event","name":"Claim","inputs":[{"name":"receiver","type":"address","indexed":false,"internalType":"address"},{"name":"amount","type":"uint256","indexed":false,"internalType":"uint256"}],"anonymous":false},{"type":"event","name":"OwnershipTransferred","inputs":[{"name":"previousOwner","type":"address","indexed":true,"internalType":"address"},{"name":"newOwner","type":"address","indexed":true,"internalType":"address"}],"anonymous":false},{"type":"event","name":"TokensPerIntervalChange","inputs":[{"name":"amount","type":"uint256","indexed":false,"internalType":"uint256"}],"anonymous":false},{"type":"event","name":"Transfer","inputs":[{"name":"from","type":"address","indexed":true,"internalType":"address"},{"name":"to","type":"address","indexed":true,"internalType":"address"},{"name":"value","type":"uint256","indexed":false,"internalType":"uint256"}],"anonymous":false},{"type":"error","name":"OwnableInvalidOwner","inputs":[{"name":"owner","type":"address","internalType":"address"}]},{"type":"error","name":"OwnableUnauthorizedAccount","inputs":[{"name":"account","type":"address","internalType":"address"}]},{"type":"error","name":"ReentrancyGuardReentrantCall","inputs":[]}],"bytecode":{"object":"0x6080604052600a600c553480156200001657600080fd5b506040516200273a3803806200273a8339810160408190526200003991620001f8565b6001600055836001600160a01b0381166200006e57604051631e4fbdf760e01b81526000600482015260240160405180910390fd5b6200007981620000c4565b50601262000088848262000317565b50601362000097838262000317565b506001600160a01b03166000908152600b60205260409020805460ff1916600117905550620003e3915050565b600180546001600160a01b038381166001600160a01b0319831681179093556040519116919082907f8be0079c531659141344cd1fd0a4f28419497f9722a3daafe3b4186f6b6457e090600090a35050565b80516001600160a01b03811681146200012e57600080fd5b919050565b634e487b7160e01b600052604160045260246000fd5b600082601f8301126200015b57600080fd5b81516001600160401b038082111562000178576200017862000133565b604051601f8301601f19908116603f01168101908282118183101715620001a357620001a362000133565b81604052838152602092508683858801011115620001c057600080fd5b600091505b83821015620001e45785820183015181830184015290820190620001c5565b600093810190920192909252949350505050565b600080600080608085870312156200020f57600080fd5b6200021a8562000116565b60208601519094506001600160401b03808211156200023857600080fd5b620002468883890162000149565b945060408701519150808211156200025d57600080fd5b506200026c8782880162000149565b9250506200027d6060860162000116565b905092959194509250565b600181811c908216806200029d57607f821691505b602082108103620002be57634e487b7160e01b600052602260045260246000fd5b50919050565b601f8211156200031257600081815260208120601f850160051c81016020861015620002ed5750805b601f850160051c820191505b818110156200030e57828155600101620002f9565b5050505b505050565b81516001600160401b0381111562000333576200033362000133565b6200034b8162000344845462000288565b84620002c4565b602080601f8311600181146200038357600084156200036a5750858301515b600019600386901b1c1916600185901b1785556200030e565b600085815260208120601f198616915b82811015620003b45788860151825594840194600190910190840162000393565b5085821015620003d35787850151600019600388901b60f8161c191681555b5050505050600190811b01905550565b61234780620003f36000396000f3fe608060405234801561001057600080fd5b50600436106102d65760003560e01c806355b6ed5c11610182578063a9059cbb116100e9578063e9503425116100a2578063f2fde38b1161007c578063f2fde38b146106bc578063f5fc5076146106cf578063f831e49e146106d8578063fd3c9c56146106eb57600080fd5b8063e950342514610680578063eded3fda146106a0578063ef953750146106a857600080fd5b8063a9059cbb146105e6578063aaf5eb68146105f9578063b5f73e8d1461060d578063cb122a0914610620578063dd62ed3e14610633578063dfbaefb11461066c57600080fd5b8063853b9dca1161013b578063853b9dca146105775780638da5cb5b1461058a57806395d89b41146105af578063992642e5146105b75780639cb7de4b146105ca578063a8d93627146105dd57600080fd5b806355b6ed5c146104ec5780635668b02e1461051757806369558c911461052a57806370a082311461053d578063715018a61461056657806375b173501461056e57600080fd5b806333080b6e11610241578063402914f5116101fa578063485cc955116101d4578063485cc9551461049357806349a3493f146104a65780634c69c00f146104b9578063552ce1dc146104cc57600080fd5b8063402914f51461043d57806344a084111461045057806346ea87af1461047057600080fd5b806333080b6e146103d35780633569fe5e146103e65780633792def3146103f9578063392e53cd146104195780633ae6d6eb1461042d5780633e158b0c1461043557600080fd5b806318160ddd1161029357806318160ddd1461036a57806318e20a03146103735780631a1c6e531461038857806323b872dd1461039157806327e235e3146103a4578063313ce567146103c457600080fd5b806304bfd609146102db57806306fdde03146102f6578063095ea7b31461030b57806310c1c1031461032e578063126082cf1461034e57806313e82e7a14610357575b600080fd5b6102e36106fe565b6040519081526020015b60405180910390f35b6102fe61070f565b6040516102ed9190611d26565b61031e610319366004611d90565b61079d565b60405190151581526020016102ed565b6102e361033c366004611dba565b60076020526000908152604090205481565b6102e361271081565b6102e3610365366004611dd5565b6107b4565b6102e360105481565b610386610381366004611e08565b6107dc565b005b6102e3600c5481565b61031e61039f366004611e21565b610894565b6102e36103b2366004611dba565b60056020526000908152604090205481565b604051600681526020016102ed565b6103866103e1366004611e5d565b61092e565b6103866103f4366004611ea7565b610958565b6102e3610407366004611dba565b600a6020526000908152604090205481565b60035461031e90600160a01b900460ff1681565b61038661097e565b61038661098c565b6102e361044b366004611dba565b6109aa565b6102e361045e366004611dba565b60096020526000908152604090205481565b61031e61047e366004611dba565b600b6020526000908152604090205460ff1681565b6103866104a1366004611dd5565b610a9d565b6103866104b4366004611ec4565b610b57565b6103866104c7366004611dba565b610ba7565b6102e36104da366004611dba565b60046020526000908152604090205481565b6102e36104fa366004611dd5565b600660209081526000928352604080842090915290825290205481565b610386610525366004611f08565b610bd1565b610386610538366004611e08565b610c7e565b6102e361054b366004611dba565b6001600160a01b031660009081526005602052604090205490565b610386610d1e565b6102e3600f5481565b61038661058536600461202f565b610d30565b6001546001600160a01b03165b6040516001600160a01b0390911681526020016102ed565b6102fe610dd5565b600254610597906001600160a01b031681565b6103866105d83660046120ef565b610de2565b6102e3600e5481565b61031e6105f4366004611d90565b610e15565b6102e36c0c9f2c9cd04674edea4000000081565b61038661061b366004611e21565b610e22565b61038661062e366004612126565b610e3d565b6102e3610641366004611dd5565b6001600160a01b03918216600090815260066020908152604080832093909416825291909152205490565b60035461031e90600160a81b900460ff1681565b6102e361068e366004611dba565b60086020526000908152604090205481565b6102e3610ea1565b60035461031e90600160b01b900460ff1681565b6103866106ca366004611dba565b610edf565b6102e360115481565b6103866106e6366004611ea7565b610f1d565b600354610597906001600160a01b031681565b6000610708610f43565b50600d5490565b6012805461071c90612141565b80601f016020809104026020016040519081016040528092919081815260200182805461074890612141565b80156107955780601f1061076a57610100808354040283529160200191610795565b820191906000526020600020905b81548152906001019060200180831161077857829003601f168201915b505050505081565b60006107aa338484610f70565b5060015b92915050565b60006107be6110a6565b6107c66110d0565b6107d0838361112f565b90506107ae6001600055565b6107e4610f43565b600f5460000361084f5760405162461bcd60e51b815260206004820152602b60248201527f526577617264547261636b65723a20696e76616c6964206c617374446973747260448201526a69627574696f6e54696d6560a81b60648201526084015b60405180910390fd5b6108596000611231565b600e8190556040518181527f98dc76c39aa5a5dcb749f8750a65db3dfa1e14bcc1591a9c16a7420e5da748f89060200160405180910390a150565b336000908152600b602052604081205460ff16156108bf576108b78484846113bb565b506001610927565b6000610909836040518060600160405280603081526020016122b4603091396001600160a01b0388166000908152600660209081526040808320338452909152902054919061156b565b9050610916853383610f70565b6109218585856113bb565b60019150505b9392505050565b6109366110a6565b61093e6110d0565b6109498383836115a5565b6109536001600055565b505050565b610960610f43565b60038054911515600160b01b0260ff60b01b19909216919091179055565b610986610f43565b42600f55565b6109946110a6565b61099e6000611231565b6109a86001600055565b565b6001600160a01b0381166000908152600760205260408120548082036109e75750506001600160a01b031660009081526008602052604090205490565b6010546000610a0b6c0c9f2c9cd04674edea40000000610a05610ea1565b9061177a565b90506000610a25610a1c83856117fc565b6011549061183e565b6001600160a01b038716600090815260096020526040902054909150610a9390610a74906c0c9f2c9cd04674edea4000000090610a6e90610a6790869061189d565b889061177a565b906117fc565b6001600160a01b0388166000908152600860205260409020549061183e565b9695505050505050565b610aa5610f43565b600354600160a01b900460ff1615610b0a5760405162461bcd60e51b815260206004820152602260248201527f526577617264547261636b65723a20616c726561647920696e697469616c697a604482015261195960f21b6064820152608401610846565b60038054600280546001600160a01b039586166001600160a01b031990911617905560ff60a81b19929093166001600160a81b031990931692909217600160a01b1716600160a81b179055565b6003546001600160a01b03163314610b815760405162461bcd60e51b81526004016108469061217b565b6001600160a01b03831660009081526007602052604090208290556109538382816115a5565b610baf610f43565b600380546001600160a01b0319166001600160a01b0392909216919091179055565b610bd96110a6565b60025460405163d505accf60e01b8152336004820152306024820152604481018790526064810186905260ff8516608482015260a4810184905260c481018390526001600160a01b039091169063d505accf9060e401600060405180830381600087803b158015610c4957600080fd5b505af1158015610c5d573d6000803e3d6000fd5b50505050610c6c3333886118df565b610c766001600055565b505050505050565b610c86610f43565b600d54811115610c9557600080fd5b600d54610ca2908261189d565b600d5560025460405163a9059cbb60e01b8152336004820152602481018390526001600160a01b039091169063a9059cbb906044016020604051808303816000875af1158015610cf6573d6000803e3d6000fd5b505050506040513d601f19601f82011682018060405250810190610d1a91906121c8565b5050565b610d26610f43565b6109a86000611a57565b6003546001600160a01b03163314610d5a5760405162461bcd60e51b81526004016108469061217b565b60005b825181101561095357818181518110610d7857610d786121e5565b602002602001015160076000858481518110610d9657610d966121e5565b60200260200101516001600160a01b03166001600160a01b03168152602001908152602001600020819055508080610dcd90612211565b915050610d5d565b6013805461071c90612141565b610dea610f43565b6001600160a01b03919091166000908152600b60205260409020805460ff1916911515919091179055565b60006107aa3384846113bb565b610e2a6110a6565b610e326110d0565b6109498383836118df565b610e45610f43565b60c88160ff161115610e995760405162461bcd60e51b815260206004820152601760248201527f466565206d757374206265203225206f72206c6f7765720000000000000000006044820152606401610846565b60ff16600c55565b6000600f544203610eb25750600090565b6000610ec9600f544261189d90919063ffffffff16565b600e54909150610ed9908261177a565b91505090565b610ee7610f43565b6001600160a01b038116610f1157604051631e4fbdf760e01b815260006004820152602401610846565b610f1a81611a57565b50565b610f25610f43565b60038054911515600160a81b0260ff60a81b19909216919091179055565b6001546001600160a01b031633146109a85760405163118cdaa760e01b8152336004820152602401610846565b6001600160a01b038316610fdb5760405162461bcd60e51b815260206004820152602c60248201527f526577617264547261636b65723a20617070726f76652066726f6d207468652060448201526b7a65726f206164647265737360a01b6064820152608401610846565b6001600160a01b0382166110445760405162461bcd60e51b815260206004820152602a60248201527f526577617264547261636b65723a20617070726f766520746f20746865207a65604482015269726f206164647265737360b01b6064820152608401610846565b6001600160a01b0383811660008181526006602090815260408083209487168084529482529182902085905590518481527f8c5be1e5ebec7d5bd14f71427d1e84f3dd0314c0f7b2291e5b200ac8c7c3b92591015b60405180910390a3505050565b6002600054036110c957604051633ee5aeb560e01b815260040160405180910390fd5b6002600055565b336000908152600b602052604090205460ff166109a85760405162461bcd60e51b815260206004820152601860248201527f526577617264547261636b65723a20666f7262696464656e00000000000000006044820152606401610846565b600354600090600160b01b900460ff161561114d5761114d83611231565b6001600160a01b0383166000908152600860205260408120805491905580156109275760025460405163a9059cbb60e01b81526001600160a01b038581166004830152602482018490529091169063a9059cbb906044016020604051808303816000875af11580156111c3573d6000803e3d6000fd5b505050506040513d601f19601f820116820180604052508101906111e791906121c8565b50604080516001600160a01b0386168152602081018390527f47cee97cb7acd717b3c0aa1435d004cd5b3c8c57d70dbceb4e4458bbd60e39d4910160405180910390a19392505050565b600061123b610ea1565b42600f556010546011549192509081158015906112585750600083115b1561128a5761128261127b83610a6e866c0c9f2c9cd04674edea4000000061177a565b829061183e565b601181905590505b806000036112985750505050565b6001600160a01b038416156113b5576001600160a01b03841660009081526007602090815260408083205460099092528220549091906112f7906c0c9f2c9cd04674edea4000000090610a6e906112f090879061189d565b859061177a565b6001600160a01b0387166000908152600860205260408120549192509061131e908361183e565b6001600160a01b0388166000908152600860209081526040808320849055600990915290208590559050801580159061136e57506001600160a01b03871660009081526007602052604090205415155b156113b1576001600160a01b0387166000908152600a6020526040812054611396908461183e565b6001600160a01b0389166000908152600a6020526040902055505b5050505b50505050565b6001600160a01b0383166114275760405162461bcd60e51b815260206004820152602d60248201527f526577617264547261636b65723a207472616e736665722066726f6d2074686560448201526c207a65726f206164647265737360981b6064820152608401610846565b6001600160a01b0382166114915760405162461bcd60e51b815260206004820152602b60248201527f526577617264547261636b65723a207472616e7366657220746f20746865207a60448201526a65726f206164647265737360a81b6064820152608401610846565b600354600160a81b900460ff16156114ab576114ab6110d0565b6114e8816040518060600160405280602e81526020016122e4602e91396001600160a01b038616600090815260056020526040902054919061156b565b6001600160a01b038085166000908152600560205260408082209390935590841681522054611517908261183e565b6001600160a01b0380841660008181526005602052604090819020939093559151908516907fddf252ad1be2c89b69c2b068fc378daa952ba7f163c4a11628f55a4df523b3ef906110999085815260200190565b6000818484111561158f5760405162461bcd60e51b81526004016108469190611d26565b50600061159c848661222a565b95945050505050565b600082116115f55760405162461bcd60e51b815260206004820152601e60248201527f526577617264547261636b65723a20696e76616c6964205f616d6f756e7400006044820152606401610846565b600354600160b01b900460ff16156116105761161083611231565b600061161b83611aa9565b6001600160a01b0385166000908152600760205260409020549091508381101561169b5760405162461bcd60e51b815260206004820152602b60248201527f526577617264547261636b65723a205f616d6f756e742065786365656473207360448201526a1d185ad959105b5bdd5b9d60aa1b6064820152608401610846565b6116a5818561189d565b6001600160a01b038087166000908152600760209081526040808320949094556002549092168152600490915220546116de908561189d565b6002546001600160a01b03166000908152600460205260409020556117038585611afa565b60025460405163a9059cbb60e01b81526001600160a01b038581166004830152602482018590529091169063a9059cbb906044016020604051808303816000875af1158015611756573d6000803e3d6000fd5b505050506040513d601f19601f82011682018060405250810190610c7691906121c8565b60008260000361178c575060006107ae565b6000611798838561223d565b9050826117a58583612254565b146109275760405162461bcd60e51b815260206004820152602160248201527f536166654d6174683a206d756c7469706c69636174696f6e206f766572666c6f6044820152607760f81b6064820152608401610846565b600061092783836040518060400160405280601a81526020017f536166654d6174683a206469766973696f6e206279207a65726f000000000000815250611c0e565b60008061184b8385612276565b9050838110156109275760405162461bcd60e51b815260206004820152601b60248201527f536166654d6174683a206164646974696f6e206f766572666c6f7700000000006044820152606401610846565b600061092783836040518060400160405280601e81526020017f536166654d6174683a207375627472616374696f6e206f766572666c6f77000081525061156b565b6000811161192f5760405162461bcd60e51b815260206004820152601e60248201527f526577617264547261636b65723a20696e76616c6964205f616d6f756e7400006044820152606401610846565b6002546040516323b872dd60e01b81526001600160a01b03858116600483015230602483015260448201849052909116906323b872dd906064016020604051808303816000875af1158015611988573d6000803e3d6000fd5b505050506040513d601f19601f820116820180604052508101906119ac91906121c8565b50600354600160b01b900460ff16156119c8576119c882611231565b60006119d382611aa9565b6001600160a01b0384166000908152600760205260409020549091506119f9908261183e565b6001600160a01b03808516600090815260076020908152604080832094909455600254909216815260049091522054611a32908261183e565b6002546001600160a01b03166000908152600460205260409020556113b58382611c3c565b600180546001600160a01b038381166001600160a01b0319831681179093556040519116919082907f8be0079c531659141344cd1fd0a4f28419497f9722a3daafe3b4186f6b6457e090600090a35050565b600080611ad1611aca612710610a6e600c548761177a90919063ffffffff16565b849061189d565b9050611add838261189d565b600d6000828254611aee9190612276565b90915550909392505050565b6001600160a01b038216611b625760405162461bcd60e51b815260206004820152602960248201527f526577617264547261636b65723a206275726e2066726f6d20746865207a65726044820152686f206164647265737360b81b6064820152608401610846565b611b9f816040518060600160405280602a815260200161228a602a91396001600160a01b038516600090815260056020526040902054919061156b565b6001600160a01b038316600090815260056020526040902055601054611bc5908261189d565b6010556040518181526000906001600160a01b038416907fddf252ad1be2c89b69c2b068fc378daa952ba7f163c4a11628f55a4df523b3ef906020015b60405180910390a35050565b60008183611c2f5760405162461bcd60e51b81526004016108469190611d26565b50600061159c8486612254565b6001600160a01b038216611ca25760405162461bcd60e51b815260206004820152602760248201527f526577617264547261636b65723a206d696e7420746f20746865207a65726f206044820152666164647265737360c81b6064820152608401610846565b601054611caf908261183e565b6010556001600160a01b038216600090815260056020526040902054611cd5908261183e565b6001600160a01b0383166000818152600560205260408082209390935591519091907fddf252ad1be2c89b69c2b068fc378daa952ba7f163c4a11628f55a4df523b3ef90611c029085815260200190565b600060208083528351808285015260005b81811015611d5357858101830151858201604001528201611d37565b506000604082860101526040601f19601f8301168501019250505092915050565b80356001600160a01b0381168114611d8b57600080fd5b919050565b60008060408385031215611da357600080fd5b611dac83611d74565b946020939093013593505050565b600060208284031215611dcc57600080fd5b61092782611d74565b60008060408385031215611de857600080fd5b611df183611d74565b9150611dff60208401611d74565b90509250929050565b600060208284031215611e1a57600080fd5b5035919050565b600080600060608486031215611e3657600080fd5b611e3f84611d74565b9250611e4d60208501611d74565b9150604084013590509250925092565b600080600060608486031215611e7257600080fd5b611e7b84611d74565b925060208401359150611e9060408501611d74565b90509250925092565b8015158114610f1a57600080fd5b600060208284031215611eb957600080fd5b813561092781611e99565b600080600060608486031215611ed957600080fd5b611ee284611d74565b95602085013595506040909401359392505050565b803560ff81168114611d8b57600080fd5b60008060008060008060c08789031215611f2157600080fd5b863595506020870135945060408701359350611f3f60608801611ef7565b92506080870135915060a087013590509295509295509295565b634e487b7160e01b600052604160045260246000fd5b604051601f8201601f1916810167ffffffffffffffff81118282101715611f9857611f98611f59565b604052919050565b600067ffffffffffffffff821115611fba57611fba611f59565b5060051b60200190565b600082601f830112611fd557600080fd5b81356020611fea611fe583611fa0565b611f6f565b82815260059290921b8401810191818101908684111561200957600080fd5b8286015b84811015612024578035835291830191830161200d565b509695505050505050565b6000806040838503121561204257600080fd5b823567ffffffffffffffff8082111561205a57600080fd5b818501915085601f83011261206e57600080fd5b8135602061207e611fe583611fa0565b82815260059290921b8401810191818101908984111561209d57600080fd5b948201945b838610156120c2576120b386611d74565b825294820194908201906120a2565b965050860135925050808211156120d857600080fd5b506120e585828601611fc4565b9150509250929050565b6000806040838503121561210257600080fd5b61210b83611d74565b9150602083013561211b81611e99565b809150509250929050565b60006020828403121561213857600080fd5b61092782611ef7565b600181811c9082168061215557607f821691505b60208210810361217557634e487b7160e01b600052602260045260246000fd5b50919050565b6020808252602d908201527f596f7520617265206e6f7420617574686f72697a656420746f2063616c6c207460408201526c3434b990333ab731ba34b7b71760991b606082015260800190565b6000602082840312156121da57600080fd5b815161092781611e99565b634e487b7160e01b600052603260045260246000fd5b634e487b7160e01b600052601160045260246000fd5b600060018201612223576122236121fb565b5060010190565b818103818111156107ae576107ae6121fb565b80820281158282048414176107ae576107ae6121fb565b60008261227157634e487b7160e01b600052601260045260246000fd5b500490565b808201808211156107ae576107ae6121fb56fe526577617264547261636b65723a206275726e20616d6f756e7420657863656564732062616c616e6365526577617264547261636b65723a207472616e7366657220616d6f756e74206578636565647320616c6c6f77616e6365526577617264547261636b65723a207472616e7366657220616d6f756e7420657863656564732062616c616e6365a2646970667358221220c3f522e93554c03b87ad2d9dae5aeaa395100c33c02413b70ff5ee3fad9b308e64736f6c63430008140033","linkReferences":{}},"methodIdentifiers":{"BASIS_POINTS_DIVISOR()":"126082cf","PRECISION()":"aaf5eb68","allowance(address,address)":"dd62ed3e","allowances(address,address)":"55b6ed5c","approve(address,uint256)":"095ea7b3","balanceOf(address)":"70a08231","balanceOracle()":"fd3c9c56","balances(address)":"27e235e3","claimForAccount(address,address)":"13e82e7a","claimable(address)":"402914f5","claimableReward(address)":"e9503425","cumulativeRewardPerToken()":"f5fc5076","cumulativeRewards(address)":"3792def3","decimals()":"313ce567","feeBPS()":"1a1c6e53","inPrivateTransferMode()":"dfbaefb1","initialize(address,address)":"485cc955","isHandler(address)":"46ea87af","isInitialized()":"392e53cd","lastDistributionTime()":"75b17350","name()":"06fdde03","oracleCallback(address,uint256,uint256)":"49a3493f","oracleCallbackEndDay(address[],uint256[])":"853b9dca","owner()":"8da5cb5b","pendingRewards()":"eded3fda","previousCumulatedRewardPerToken(address)":"44a08411","renounceOwnership()":"715018a6","setFee(uint8)":"cb122a09","setHandler(address,bool)":"9cb7de4b","setInPrivateModes(bool)":"f831e49e","setOracleAddress(address)":"4c69c00f","setRewardsModes(bool)":"3569fe5e","setTokensPerInterval(uint256)":"18e20a03","stableCoin()":"992642e5","stableRewardSystem()":"ef953750","stakeForAccount(address,address,uint256)":"b5f73e8d","stakeWithPermit(uint256,uint256,uint256,uint8,bytes32,bytes32)":"5668b02e","stakedAmounts(address)":"10c1c103","symbol()":"95d89b41","tokensPerInterval()":"a8d93627","totalDepositSupply(address)":"552ce1dc","totalSupply()":"18160ddd","transfer(address,uint256)":"a9059cbb","transferFrom(address,address,uint256)":"23b872dd","transferOwnership(address)":"f2fde38b","unstakeForAccount(address,uint256,address)":"33080b6e","updateLastDistributionTime()":"3ae6d6eb","updateRewards()":"3e158b0c","viewFeeRevenue()":"04bfd609","withdrawFeeRevenue(uint256)":"69558c91"},"id":16}